:020000040000FA
:100000000C9462000C948A000C948A000C948A0070
:100010000C948A000C948A000C948A000C948A0038
:100020000C948A000C948A000C948A000C94230689
:100030000C948A000C948A000C948A000C948A0018
:100040000C94D9050C948A000C948A000C948A00B4
:100050000C948A000C948A000C948A000C948A00F8
:100060000C948A000C948A000000000024002700F1
:100070002A0000000000250028002B0004040404CE
:100080000404040402020202020203030303030342
:10009000010204081020408001020408102001021F
:1000A00004081020000000080002010000030407FB
:1000B00000000000000000000000000023002600F7
:1000C0002900BA0811241FBECFEFD8E0DEBFCDBF94
:1000D00011E0A0E0B1E0E2EAF7E102C005900D9284
:1000E000A635B107D9F721E0A6E5B1E001C01D9220
:1000F000A43BB207E1F710E0C2E6D0E004C02197CC
:10010000FE010E94C90BC136D107C9F70E94DF0664
:100110000C94CF0B0C940000CF92DF92EF92FF92E1
:10012000DC01A03282E0B807D4F5A53BB10514F09C
:10013000A4EBB0E040919A0128E830E0241B31099B
:1001400047FD3395220F331F220F331F6901330FF1
:10015000EE08FF0840919B0128E532E0241B31099D
:1001600047FD3395220F331F220F331F032E000C40
:10017000440B550B2C193D094E095F09B7FF02C00E
:10018000B0E0A0E00E94480924EB30E040E050E0FD
:100190000E941E09C20ED31EE41EF51ED601E09178
:1001A0009901EC3080F520919A0188E890E0821B5B
:1001B000910927FD9395880F991F880F991FA817FC
:1001C000B90784F020919B0188E592E0821B910998
:1001D00027FD9395880F991F880F991FA817B907B6
:1001E0000CF4CD010297880F991F4FB7F8942E2F6A
:1001F00030E0F901EE0FFF1FE20FF31FEB58FE4F47
:10020000928381834FBFFF90EF90DF90CF9008954E
:100210008F929F92AF92BF92CF92DF92EF92FF9216
:10022000CF93DF93A0916A0130E081113A2F809142
:100230006B0190E0880F991FAC0148545F4FC0904C
:100240007001D0907101E0907201F090730160E054
:1002500070E0CB01FA01C591D49128812A232313A0
:100260000FC04B015C012FEF821A920AA20AB20A58
:100270006C157D058E059F0570F060E070E0CB0188
:10028000DF91CF91FF90EF90DF90CF90BF90AF9034
:100290009F908F900895C501B401DCCF90E0FC01E0
:1002A000EC55FF4F2491FC01E057FF4F3491FC01C6
:1002B000E458FF4FE491EE23C9F0222339F02330B4
:1002C00001F1A8F4213019F1223029F1F0E0EE0F0C
:1002D000FF1FEE58FF4FA591B4918FB7F894EC91A2
:1002E000611126C030953E233C938FBF089527307F
:1002F000A9F02830C9F0243049F7809180008F7D23
:1003000003C0809180008F7780938000DFCF84B519
:100310008F7784BDDBCF84B58F7DFBCF8091B0001C
:100320008F778093B000D2CF8091B0008F7DF9CFCE
:100330003E2BDACFCF93DF9390E0FC01E057FF4FE5
:10034000249184589F4FFC0184918823D1F090E040
:10035000880F991FFC01E859FF4FA591B491FC014A
:10036000EE58FF4FC591D491623071F49FB7F89465
:100370003C91822F809583238C93E8812E2B2883B8
:100380009FBFDF91CF9108958FB7F894EC912E2BFA
:100390002C938FBFF6CF3FB7F89480915B0190917B
:1003A0005C01A0915D01B0915E0126B5A89B05C0DE
:1003B0002F3F19F00196A11DB11D3FBFBA2FA92FE4
:1003C000982F8827BC01CD01620F711D811D911DE1
:1003D00042E0660F771F881F991F4A95D1F708954D
:1003E0008F929F92AF92BF92CF92DF92EF92FF9245
:1003F0004B015C010E94CB016B017C010E94CB018F
:100400006C197D098E099F09683E7340810591052D
:10041000A8F321E0821A9108A108B10888EEC80E5D
:1004200083E0D81EE11CF11C81149104A104B104E5
:1004300029F7FF90EF90DF90CF90BF90AF909F9003
:100440008F900895CF92DF92EF92FF920F931F93B8
:10045000CF93DF93CDB7DEB7C054D1400FB6F89439
:10046000DEBF0FBECDBF2FB7F89480915F01909192
:100470006001A0916101B09162012FBF40916C01B8
:1004800050916D0160916E0170916F018C019D0121
:10049000041B150B260B370BB901A801403D574033
:1004A0006105710590F480917401C05CDE4F0FB658
:1004B000F894DEBF0FBECDBFDF91CF911F910F919A
:1004C000FF90EF90DF90CF90089580936C01909310
:1004D0006D01A0936E01B0936F01109267011092AD
:1004E000660110926501109264011092630161E04F
:1004F000809168010E944E016AEF70E080E090E018
:100500000E94F00161E0809168010E949A0160E020
:10051000809168010E944E0164E170E080E090E00B
:100520000E94F001F89461E0809168010E944E0100
:100530008BE990E00197F1F762E0809168010E94F9
:100540009A0183E290E00197F1F780E00E940801B0
:10055000672B682B692B29F410927401789480E042
:10056000A4CF81E00E940801672B682B692BA1F3BF
:100570008E010F5F1F4F6E012FEBC21A2EEFD20AB2
:10058000780180E00E940801F70160837183828313
:10059000938381E00E940801F70164837583868359
:1005A0009783F8E0EF0EF11CEC14FD0451F77894FA
:1005B00030E020E0F801C080D180E280F380448107
:1005C000558166817781C114D104E104F10429F0D9
:1005D000411551056105710519F410927401BFCFE1
:1005E000F90183E0F595E7958A95E1F7ED59FE4F1E
:1005F0008081880FC416D506E606F70610F18083C1
:100600002F5F3F4F085F1F4F2832310599F6409109
:1006100067012091630180916401280F3327331F04
:1006200080916501280F311D80916601820F932F03
:10063000911D99274817190681F681E0809374016E
:1006400034CF8160DCCFAF92BF92CF92DF92EF9236
:10065000FF920F931F93CF93DF936C017B018B016C
:10066000040F151FEB015E01AE18BF08C017D107BC
:1006700059F06991D601ED91FC910190F081E02D46
:10068000C6010995892B79F7C501DF91CF911F919B
:100690000F91FF90EF90DF90CF90BF90AF900895B3
:1006A000089590E080E00895FC0101900020E9F7B2
:1006B0003197AF01481B590BBC018CE991E00C94B8
:1006C00023038F929F92AF92BF920F931F93CF936A
:1006D000DF93CDB7DEB7A1970FB6F894DEBF0FBE9C
:1006E000CDBF19A2423008F44AE08E010F5D1F4FC2
:1006F000842E912CB12CA12CA50194010E945009AB
:10070000E62FB901CA01EA30F4F4E05DD801EE93B6
:100710008D01232B242B252B79F790E080E0109777
:1007200019F0CD010E945403A1960FB6F894DEBFD4
:100730000FBECDBFDF91CF911F910F91BF90AF90B2
:100740009F908F900895E95CE1CFCF93DF93EC0108
:1007500060E08E810E944E0161E08E810E944E0118
:1007600060E08E810E944E018BE891E00197F1F7E5
:10077000DF91CF910895CF92DF92EF92FF920F9386
:100780001F93CF93DF936C017C0187E0E80EF11C8F
:10079000D0E0C0E0062F10E0B8010C2E02C0759525
:1007A00067950A94E2F76170F70181917F010E94D9
:1007B0004E012196C430D10579F7C601DF91CF9162
:1007C0001F910F91FF90EF90DF90CF900C94A503B5
:1007D000CF92DF92EF92FF920F931F93CF93DF930D
:1007E000EC01F62E642F8C810E944E018D818F3F8B
:1007F00019F060E00E944E010F2D10E08F8584FFFC
:1008000025C06E0187E0C80ED11CF12CE12CB80187
:100810000E2C02C0759567950A94E2F76170F60197
:1008200081916F010E944E01FFEFEF1AFF0A88E0ED
:10083000E816F10461F7CE01DF91CF911F910F917E
:10084000FF90EF90DF90CF900C94A503B80184E067
:10085000759567958A95E1F7CE010E94BB036F2DD0
:10086000CE01DF91CF911F910F91FF90EF90DF901C
:10087000CF900C94BB0340E0682F8CE991E00C947E
:10088000E803CF93DF93823029F49091AB01986015
:100890009093AB018093AF011092B00180E48093FC
:1008A000B10180E18093B20180E58093B30161E002
:1008B0008091A0010E949A018091A1018F3F19F0BF
:1008C00061E00E949A0161E08091A2010E949A0178
:1008D000CCE9D1E09E012C5931408091AB0184FDDF
:1008E0000BC084E090E021962817390744F461E0BA
:1008F0008E810E949A01EECF88E090E0F4CF8BE3E6
:100900009DE00197F1F760E08091A0010E944E0107
:1009100060E08091A2010E944E018091A1018F3F71
:1009200019F060E00E944E018091AB0184FD39C056
:1009300063E08CE991E00E94BB03CBE4D6E4CE01F6
:100940000197F1F763E08CE991E00E94BB032197E6
:10095000F1F763E08CE991E00E94BB0383E592E04C
:100960000197F1F762E08CE991E00E94BB0380916E
:10097000AB0180620E943B0484E08093AC018CE078
:100980000E943B0481E00E943B048BE39FE10197BE
:10099000F1F782E08093AD0186E0DF91CF910C9476
:1009A0003B0480620E943B048BE496E40197F1F7DC
:1009B0008091AB0180620E943B0483E592E0019745
:1009C000F1F78091AB0180620E943B04D0CF9091FF
:1009D000AF01891710F08FEF890FE82FF0E0E45690
:1009E000FE4F848980680C943B0441E00E94E80338
:1009F00081E090E008954F925F926F927F928F9284
:100A00009F92AF92BF92CF92DF92EF92FF920F939D
:100A10001F93CF936B017C01742EAC019B010E944C
:100A2000B80B882399F08CE091E0CF911F910F9142
:100A3000FF90EF90DF90CF90BF90AF909F908F90FE
:100A40007F906F905F904F900C9454034601570134
:100A5000E894B7F82FEF3FEF4FE75FE7C501B40128
:100A60000E94B80B81110DC02FEF3FEF4FE75FE7FA
:100A7000C501B4010E94EE0918161CF480E191E052
:100A8000D4CF2FEF3FEF4FE75FE4C701B6010E94DD
:100A9000460B18161CF484E191E0C7CF2FEF3FEF0F
:100AA0004FE75FECC701B6010E94EE0987FDF3CF67
:100AB00020E030E0A901C701B6010E94EE0910E074
:100AC00000E087FF0CC041E06DE28CE991E00E94FC
:100AD000E803F7FAF094F7F8F09401E010E0C0E0D2
:100AE00060E070E080E09FE37C1641F020E030E0C1
:100AF00040E251E40E94F309CF5FF6CFA7019601CF
:100B00000E9482094B015C010E94650A2B013C0195
:100B10004AE00E946103080F191FCC23C9F1C301E9
:100B2000B2010E94940A9B01AC01C501B4010E946C
:100B300081094B015C0141E06EE28CE991E00E9489
:100B4000E8030F5F1F4FC15018F120E030E040E292
:100B500051E4C501B4010E944B0B2B013C010E94E2
:100B6000650A4B01B12CA12C4AE0C501B4010E94D9
:100B70006103080F191FC501B4010E94940A9B016B
:100B8000AC01C301B2010E9481094B015C01DBCFC2
:100B9000C801CF911F910F91FF90EF90DF90CF9000
:100BA000BF90AF909F908F907F906F905F904F908D
:100BB00008951F920F920FB60F9211242F933F9317
:100BC0008F939F93AF93BF9380915F01909160014A
:100BD000A0916101B091620130915A0123E0230F8D
:100BE0002D3758F50196A11DB11D20935A01809310
:100BF0005F0190936001A0936101B09362018091C5
:100C00005B0190915C01A0915D01B0915E01019644
:100C1000A11DB11D80935B0190935C01A0935D01C8
:100C2000B0935E01BF91AF919F918F913F912F91B2
:100C30000F900FBE0F901F90189526E8230F029675
:100C4000A11DB11DD2CF1F920F920FB60F9211248A
:100C50002F933F934F935F936F937F938F939F93C4
:100C6000AF93BF93CF93DF93EF93FF93809157019F
:100C7000C0915601D0E087FF24C0109285001092E9
:100C80008400809157018F5F8093570180915701B5
:100C9000082E000C990B8C179D0724F480915701A6
:100CA0008C30C4F18091840090918500049680344A
:100CB0009C4908F47AC08091840090918500049644
:100CC00076C080915701082E000C990B8C179D0758
:100CD000C4F6E09157018E2FEE0F990BFC01EE0F39
:100CE000FF1FE80FF91FEB58FE4F808186FFC9CF29
:100CF000E09157018E2FEE0F990BFC01EE0FFF1FB5
:100D0000E80FF91FEB58FE4F808160E08F730E945F
:100D10004E01B7CF2091840030918500E0915701BA
:100D20008E2FEE0F990BFC01EE0FFF1FE80FF91F3E
:100D3000EB58FE4F81819281820F931F909389001F
:100D400080938800E09157018E2FEE0F990BFC01E4
:100D5000EE0FFF1FE80FF91FEB58FE4F808186FF53
:100D600011C0E09157018E2FEE0F990BFC01EE0F91
:100D7000FF1FE80FF91FEB58FE4F808161E08F7372
:100D80000E944E01FF91EF91DF91CF91BF91AF9102
:100D90009F918F917F916F915F914F913F912F9193
:100DA0000F900FBE0F901F90189580E49CE99093D0
:100DB0008900809388008FEF80935701E3CF789468
:100DC00084B5826084BD84B5816084BD85B5826050
:100DD00085BD85B5816085BD80916E008160809301
:100DE0006E0010928100809181008260809381006A
:100DF000809181008160809381008091800081607A
:100E0000809380008091B10084608093B1008091D4
:100E1000B00081608093B00080917A0084608093FC
:100E20007A0080917A00826080937A0080917A00C3
:100E3000816080937A0080917A00806880937A0044
:100E40001092C10062E0809168010E949A0180E3E3
:100E500098EFAFEFBFEF80936C0190936D01A0937B
:100E60006E01B0936F0182E00E94410480E00E9415
:100E7000E70488E191E00E94540381E00E94E704C6
:100E80008FE191E00E94540360ED77E080E090E014
:100E90000E94F00180E00E94E70487E291E00E9456
:100EA000540381E00E94E7048FE291E00E94540322
:100EB00060ED77E080E090E00E94F00181E00E9428
:100EC0003B048BE39FE10197F1F7809199018C300E
:100ED00008F051C061E089E00E949A018091990177
:100EE000282F30E0F901EE0FFF1FE20FF31FEB5840
:100EF000FE4F9081907C9960908310929A0110929D
:100F00009B012CE0622F0E94BD0B829FB001112437
:100F100030E020E0AB01420F531FFA01EE0FFF1F3C
:100F2000E40FF51FEB58FE4F908196FD16C02F5F22
:100F30003F4F2C30310571F781110FC010928000A6
:100F400082E0809381001092850010928400B19A13
:100F500080916F00826080936F00E09199018E2FE5
:100F600090E0FC01EE0FFF1FE80FF91FEB58FE4F5A
:100F7000808180648083C0E0D0E004EB10E00E94B8
:100F80002202882341F0809169018B3059F018F0DA
:100F90008551823020F1812C912C90ECA92E9FE775
:100FA000B92E09C06091630170E090E080E00E947A
:100FB000940A4B015C010E942202882349F080912F
:100FC00069018B3069F120F08551823008F47BC0D3
:100FD000C12CD12C80ECE82E8FE7F82E2AC060912E
:100FE000630170E090E080E00E94940A20E030E02D
:100FF00040E853E40E944B0B6B017C01609164015B
:1010000070E090E080E00E94960AA70196010E949D
:1010100082092DEC3CEC4CEC5DE30E944B0BC9CFFC
:101020006091650170E090E080E00E94940A6B019D
:101030007C0180E00E94E7048BE391E00E9454036E
:1010400042E0C701B6010E94FB048EE391E00E94DA
:10105000540342E0C501B4010E94FB0464E670E061
:1010600080E090E00E94F00120E030E048E452E4AB
:10107000C501B4010E94EE0987FF6BC010925901AF
:10108000109258018091580190915901853B91052A
:101090000CF044C00E948C0081E00E94E70482E4CE
:1010A00091E00E9454036FE070E080E090E00E94C5
:1010B000F001809158019091590105969093590142
:1010C00080935801DFCF70906501672D6F7770E0D6
:1010D00090E080E00E94960A20E030E040E853E48F
:1010E0000E944B0B6B017C016091660170E090E007
:1010F00080E00E94960AA70196010E9482092DECC9
:101100003CEC4CEC5DE30E944B0B6B017C0177FEE9
:1011100090CFF7FAF094F7F8F0948BCF1093590131
:1011200000935801E0905801F0905901F7FC1CC061
:10113000C7010E948C006FE070E080E090E00E94A8
:10114000F00185E0E81AF108F0925901E0925801A7
:10115000E9CF90E080E00E948C0081E00E94E704EB
:101160008CE491E00E945403209709F408CF0E9478
:10117000000005CFCF9310929F0110929E0184E052
:1011800091E090939D0180939C0187E08093A00162
:10119000CFEFC093A10186E08093A20185E0809308
:1011A000A30184E08093A40183E08093A50182E001
:1011B0008093A6011092A7011092A8011092A90194
:1011C0001092AA011092AB0181E00E94410488E0D4
:1011D000809368018BE080936901E8E9F0E0E49195
:1011E000E0936A01E4E8F0E0E491E0936B0180E8C9
:1011F0009EE3A0E0B0E08093700190937101A09312
:101200007201B0937301809156018C30A0F491E08B
:10121000980F909356018093990190E0FC01EE0F96
:10122000FF1FE80FF91FEB58FE4F88EB9BE09283FE
:101230008183CF910895C0939901FBCF052E97FB31
:101240001EF400940E94350957FD07D00E945009F2
:1012500007FC03D04EF40C94350950954095309519
:1012600021953F4F4F4F5F4F089590958095709512
:1012700061957F4F8F4F9F4F08950E947209A59FE0
:10128000900DB49F900DA49F800D911D1124089581
:10129000B7FF0C943D090E943D09821B930B0895F2
:1012A000A1E21A2EAA1BBB1BFD010DC0AA1FBB1F6A
:1012B000EE1FFF1FA217B307E407F50720F0A21BDC
:1012C000B30BE40BF50B661F771F881F991F1A9449
:1012D00069F760957095809590959B01AC01BD0173
:1012E000CF010895A29FB001B39FC001A39F700DCD
:1012F000811D1124911DB29F700D811D1124911D1E
:1013000008955058BB27AA270E9499090C940C0BEA
:101310000E94FE0A38F00E94050B20F039F49F3F2E
:1013200019F426F40C94FB0A0EF4E095E7FB0C94F8
:10133000F50AE92F0E941D0B58F3BA1762077307CD
:101340008407950720F079F4A6F50C943F0B0EF472
:10135000E0950B2EBA2FA02D0B01B90190010C01C5
:10136000CA01A0011124FF27591B99F0593F50F4DD
:10137000503E68F11A16F040A22F232F342F442735
:10138000585FF3CF469537952795A795F04053952D
:10139000C9F77EF41F16BA0B620B730B840BBAF0FD
:1013A0009150A1F0FF0FBB1F661F771F881FC2F768
:1013B0000EC0BA0F621F731F841F48F4879577957C
:1013C0006795B795F7959E3F08F0B0CF9395880F36
:1013D00008F09927EE0F9795879508950E94D10AF6
:1013E00008F481E008950E94070A0C940C0B0E94F7
:1013F000050B58F00E94FE0A40F029F45F3F29F0E7
:101400000C94F50A51110C94400B0C94FB0A0E94A9
:101410001D0B68F39923B1F3552391F3951B550BDD
:10142000BB27AA2762177307840738F09F5F5F4FB7
:10143000220F331F441FAA1FA9F335D00E2E3AF0F6
:10144000E0E832D091505040E695001CCAF72BD00E
:10145000FE2F29D0660F771F881FBB1F261737075F
:101460004807AB07B0E809F0BB0B802DBF01FF2791
:1014700093585F4F3AF09E3F510578F00C94F50A6F
:101480000C94400B5F3FE4F3983ED4F38695779538
:101490006795B795F7959F5FC9F7880F911D96954A
:1014A000879597F90895E1E0660F771F881FBB1FA6
:1014B000621773078407BA0720F0621B730B840B53
:1014C000BA0BEE1F88F7E09508950E94250B88F06F
:1014D0009F5798F0B92F9927B751B0F0E1F0660FF8
:1014E000771F881F991F1AF0BA95C9F714C0B13039
:1014F00091F00E943F0BB1E008950C943F0B672FD1
:10150000782F8827B85F39F0B93FCCF38695779567
:101510006795B395D9F73EF4909580957095619550
:101520007F4F8F4F9F4F0895E89409C097FB3EF47B
:1015300090958095709561957F4F8F4F9F4F992320
:10154000A9F0F92F96E9BB279395F695879577959E
:101550006795B795F111F8CFFAF4BB0F11F460FF5E
:101560001BC06F5F7F4F8F4F9F4F16C0882311F0B6
:1015700096E911C0772321F09EE8872F762F05C0CA
:10158000662371F096E8862F70E060E02AF09A9565
:10159000660F771F881FDAF7880F9695879597F95A
:1015A0000895990F0008550FAA0BE0E8FEEF1616F4
:1015B0001706E807F907C0F012161306E407F50747
:1015C00098F0621B730B840B950B39F40A2661F0BB
:1015D000232B242B252B21F408950A2609F4A1405E
:1015E000A6958FEF811D811D089597F99F6780E86B
:1015F00070E060E008959FEF80EC089500240A9465
:101600001616170618060906089500240A941216DD
:101610001306140605060895092E0394000C11F410
:10162000882352F0BB0F40F4BF2B11F460FF04C0BD
:101630006F5F7F4F8F4F9F4F089557FD9058440F16
:10164000551F59F05F3F71F04795880F97FB991F21
:1016500061F09F3F79F087950895121613061406DE
:10166000551FF2CF4695F1DF08C01616170618066B
:10167000991FF1CF86957105610508940895E89446
:10168000BB2766277727CB0197F908950E94D10AD7
:1016900008F48FEF08950E945E0B0C940C0B0E94CF
:1016A000FE0A38F00E94050B20F0952311F00C94EF
:1016B000F50A0C94FB0A11240C94400B0E941D0B9C
:1016C00070F3959FC1F3950F50E0551F629FF00195
:1016D000729FBB27F00DB11D639FAA27F00DB11DAE
:1016E000AA1F649F6627B00DA11D661F829F222737
:1016F000B00DA11D621F739FB00DA11D621F839FBE
:10170000A00D611D221F749F3327A00D611D231F93
:10171000849F600D211D822F762F6A2F11249F57E1
:1017200050409AF0F1F088234AF0EE0FFF1FBB1FE4
:10173000661F771F881F91505040A9F79E3F5105A3
:1017400080F00C94F50A0C94400B5F3FE4F3983E54
:10175000D4F3869577956795B795F795E7959F5F4D
:10176000C1F7FE2B880F911D9695879597F90895DF
:101770000E94D10A880B990B0895991B79E004C047
:10178000991F961708F0961B881F7A95C9F78095C0
:101790000895EE0FFF1F0590F491E02D0994F89441
:1017A000FFCF00000000F5042303510350036E61D6
:1017B0006E00696E66006F7666004554452D3137C0
:1017C0000047726F75703A33004554452D343136F9
:1017D00000496F542050726F6A65637400543A0078
:1017E00020483A004D6F746F72204F6E20004D6F8D
:0817F000746F72204F66660061
:107E0000112484B714BE81FFF0D085E080938100F7
:107E100082E08093C00088E18093C10086E0809377
:107E2000C20080E18093C4008EE0C9D0259A86E02C
:107E300020E33CEF91E0309385002093840096BBD3
:107E4000B09BFECF1D9AA8958150A9F7CC24DD24C4
:107E500088248394B5E0AB2EA1E19A2EF3E0BF2EE7
:107E6000A2D0813461F49FD0082FAFD0023811F036
:107E7000013811F484E001C083E08DD089C08234E0
:107E800011F484E103C0853419F485E0A6D080C0E4
:107E9000853579F488D0E82EFF2485D0082F10E0AE
:107EA000102F00270E291F29000F111F8ED06801E7
:107EB0006FC0863521F484E090D080E0DECF843638
:107EC00009F040C070D06FD0082F6DD080E0C81688
:107ED00080E7D80618F4F601B7BEE895C0E0D1E017
:107EE00062D089930C17E1F7F0E0CF16F0E7DF06D8
:107EF00018F0F601B7BEE89568D007B600FCFDCFD4
:107F0000A601A0E0B1E02C9130E011968C91119780
:107F100090E0982F8827822B932B1296FA010C0160
:107F200087BEE89511244E5F5F4FF1E0A038BF0790
:107F300051F7F601A7BEE89507B600FCFDCF97BE46
:107F4000E89526C08437B1F42ED02DD0F82E2BD052
:107F50003CD0F601EF2C8F010F5F1F4F84911BD097
:107F6000EA94F801C1F70894C11CD11CFA94CF0C13
:107F7000D11C0EC0853739F428D08EE10CD085E9AC
:107F80000AD08FE07ACF813511F488E018D01DD067
:107F900080E101D065CF982F8091C00085FFFCCF94
:107FA0009093C60008958091C00087FFFCCF809118
:107FB000C00084FD01C0A8958091C6000895E0E648
:107FC000F0E098E1908380830895EDDF803219F02E
:107FD00088E0F5DFFFCF84E1DECF1F93182FE3DFCA
:107FE0001150E9F7F2DF1F91089580E0E8DFEE27F6
:047FF000FF270994CA
:027FFE00040479
:00000001FF
